:020000040000FA
:1000000048020020F100000017010000D5000000A8
:1000100000000000000000000000000000000000E0
:100020000000000000000000000000001B010000B4
:1000300000000000000000001D0100001F01000082
:100040002101000021010000210100002101000028
:100050002101000021010000210100002101000018
:1000600021010000F916000021010000210100001B
:100070006D17000021010000210100002101000096
:100080002101000021010000811100002101000078
:1000900021010000210100002101000021010000D8
:1000A00021010000210100002101000021010000C8
:1000B00021010000210100002101000021010000B8
:1000C0000348854600F094FC00480047B126000034
:1000D0004802002004207146084202D0EFF3098054
:1000E00001E0EFF308807146004A10475911000003
:1000F0000C480D4901600D4901600D4901600D4A30
:100100000D4911600D4A0E491160002101600D4832
:1001100080470D480047FEE7FEE7FEE7FEE7FEE703
:10012000FEE700000001004059000000160000003A
:100130008800000024000040A55A00008002004012
:1001400001000000DD150000C100000030B50B46C5
:10015000014600202022012409E00D46D5409D42A1
:1001600005D31D469540491B254695404019154627
:10017000521E002DF1DC30BD03460B439B0703D01C
:1001800009E008C9121F08C0042AFAD203E00B785C
:100190000370401C491C521EF9D27047F8B5024644
:1001A0004A40D40F42004B0052085B089A4202D2E8
:1001B0000246084611464A0023D0C30D4A00DDB26C
:1001C000120EAD1A202D35DA49020126490AF6052C
:1001D0008A19002C00D0524220214F1B1146B940F1
:1001E0002A411018C20D9A4221D0002C17D0012D9F
:1001F00008DCDA05801AD20F8019D207DBB200F0D2
:1002000010FAF8BDDA05801A012340001B06C01859
:1002100080185A428018CA0F1043490007E0490865
:10022000C2071143DA05801A80194008801800F0CF
:10023000F0F9F8BD61000122511A001BF7E7012215
:10024000D2075140AAE70122D2075040A6E7024652
:1002500070B54A40D30FDB0740002DD04A002AD0AA
:10026000010E140E000212020919400A520A8418E3
:10027000E50104465443000A120A2E045043A4190F
:100280004219200CC543AA18120C0125AD03521CBB
:10029000521912047F39240400D0521C104301D497
:1002A0004000491EC2B20C06C0092018401C40087C
:1002B000802A02D003E0002070BD400840000029E1
:1002C00000DA0020184370BD420005D04200120E33
:1002D00052428A4201DB00207047C9050818704766
:1002E000F0B51FB488B00B990998002448400999CB
:1002F000C00F490049080991C0070B9900904900B7
:1003000049080B9109990898A64608431CD00B99F7
:100310000A98084318D0099801244000420D48006B
:10032000410D099824050003000B204309900B9808
:100330000003000B20430B9050181C49401800226A
:1003400001901446104605E0002001460DB0F0BDB6
:10035000032801DA034600E003239C46C11A0AAED3
:100360000AE05F0008ADED5B4F00F75B7D430027BF
:10037000AA187C41491C5B1E6145F2DD410004ABBB
:100380005A522104120C0A43240C401C0828DFDBBB
:10039000019802900099704601910090059B049A83
:1003A0000799069800F083F9D0E700000DFCFFFFE5
:1003B000F0B50C465C4085B0E40FE40703944C00B4
:1003C00000266408590094464908024602962243D2
:1003D00021D062460A431ED06200570D4A000E0328
:1003E0002303550D012402462C492405781B1B0BC1
:1003F000360B401823432643614600901C46501A92
:10040000B44103D30098401C009002E09218009879
:100410005B41002803DA0020014605B0F0BD002052
:10042000012109050746864611E064461D46141B56
:10043000B54106D36546521BB341744607430C438E
:10044000A646CD0740084908284392185B41054657
:100450000D43EAD11046184313D060461946504068
:100460007140084306D06046101AB34106D20122FB
:10047000002306E000220123DB0702E00122D24331
:100480005310009874460105381C6141029C039D7D
:100490000019694100F0FEF8BFE70000FD0300000D
:1004A000C217C10F504010B54018CA07962300214B
:1004B00000F0B7F810BDC20F410040020123400A0E
:1004C000DB05D207090EC0187F2901DA002070472A
:1004D000962903DC9623591AC84001E096398840D2
:1004E000002AF4D04042704770B5CD0F4A0009038E
:1004F0000123090B1B0519430B4BED070024520D7B
:100500009A4201DA002070BD074B34339A4203DC73
:100510009A1A00F06DF802E00449511888402C4303
:10052000F1D0404270BD0000FF030000CDFBFFFF93
:10053000C20FD207400040080BD0C10D0723DB01DA
:10054000C91840020905400A1143C2084007114377
:100550007047002001467047CB0FDB07490010B5FC
:10056000490802460A4307D00A0D07240903E4019B
:10057000090B121B002A01DC002010BDC900440F2A
:100580000C43C100E018D205801800F042F810BDFD
:10059000F0B51FB40646002082B005464024019104
:1005A00000901BE0019922460F46304600F020F8EB
:1005B000049A059B801A994110D310461946224689
:1005C00000F028FA361A8F410197224601200021B7
:1005D000009F00F01FFA38184D4100902046641E1D
:1005E0000028DFDC019B00982946324607B0F0BDA9
:1005F00010B5202A04DB0846203AD040002110BD67
:100600000B46D340D0402024A21A914008431946FB
:1006100010BD002904DA401C490001D14008400007
:10062000704770B40024050C05D11024000402D1D9
:10063000002921D01124050E01D100020834050F34
:1006400001D10001241D850F01D18000A41C0028C8
:1006500001DB4000641C002908D020252E1B0D461C
:10066000F540A14000D001212943084301061B1B8E
:10067000000ADB1D02D5002070BC7047DB0518188E
:1006800080180029F8DA401C4900F5D170BC4008F8
:100690004000704710B5002B08DA0024401C61416F
:1006A00092185B411A4301D14008400010BDF0B5DB
:1006B0001FB482B005460C0003D0084601F0DCF9F7
:1006C00002E001F0D9F92030024600902146284688
:1006D00000F0A0F9049B059A04460F461843114305
:1006E000084314D0184610431BD0009840210A1A22
:1006F00018460599FFF77CFF05460E46009A0599B6
:10070000049800F087F9084305D0012004E0204652
:10071000394607B0F0BD0020C11705430E432C43F6
:10072000374300990E986305401A7905E40A0022C0
:100730000C43FD0A0A3002D500200146E9E7010515
:10074000101969410C9C0D9D00196941FFF7A2FF2A
:10075000DFE70000F0B507460846584087B0C00FF5
:10076000049048000E46590040084908BC1A8841C8
:1007700005D2384631461E4617460B4602465800FB
:10078000400810434CD0300D039040055900400DF7
:10079000490D0590401A0290402872DA1803012191
:1007A000000B09050843019004980092002805D029
:1007B0000199524200208841009201900298402104
:1007C0000A1A0199009800F025F905460C466B4677
:1007D00007CB00F02FF9C0197141039A0E0D0023C9
:1007E000D71756401A467A40164344D0049A002A36
:1007F0002DD0029A012A039A15DC1205C01A9141E4
:1008000001263605001C7141D20F059ED2070093C8
:10081000019202962A462346FFF749FF07B0F0BD32
:1008200038463146FAE71605224A0F46B218C01A72
:10083000B74101210905001C4F4100187F411146B5
:1008400018187941E20F10436D19644113E0E20773
:100850006D0815436408C2071443039A0126120564
:10086000C01A91413605001C7141CE074008304343
:100870004908C01851412A462346FFF70BFFCDE730
:10088000FFE7049801224000C117121A00238B4190
:1008900004983146C417381AA141EEE730B4012458
:1008A000E407634030BC55E730B40124E4076140FD
:1008B00030BC4FE70000E0FF70B54B005B0803431E
:1008C0000BD04B005C0D002633466542B341D41774
:1008D000AD1AA34102DB0020014670BD120530189D
:1008E000514170BDFEB500231A461B1A8A4103DB35
:1008F0000020014603B0F0BD4A000D0301212D0B7D
:100900000905520D0D43D10702D100186D41521E49
:100910005110FF31FF310131002704463E46384671
:10092000009701910246012100200905FFF760FEB2
:10093000C3197141F818324684468E464A416146D1
:100940002846611A904104D36046241A95417646A0
:100950001F46241900986D41401C00903428E1DDA9
:10096000F91930467041091BA84103D20022D24335
:10097000134601E00022134601980105381C71411D
:10098000FFF788FEB6E700004A0009030123090BC0
:100990001B0519430A4B10B5520D9A4202DA00208A
:1009A000014610BD064B34339A4203DC9A1AFFF716
:1009B0001FFE10BD034BD21800F02CF810BD000034
:1009C000FF030000CDFBFFFF10B5002904DB01246D
:1009D000E40740428C412146002B04DB1C460123E6
:1009E000DB075242A341994200D1904210BD000062
:1009F000064C0125064E05E0E36807CC2B430C3C72
:100A000098471034B442F7D3FFF75EFBC0290000CB
:100A1000E029000010B5202A04DB0146203A91406D
:100A2000002010BD914020239C1A0346E340194347
:100A3000904010BD10B5202A06DBCB170846203A9F
:100A40001041C1170B4306E00B461341D040202450
:100A5000A21A91400843194610BD08B50022009221
:100A6000014602236A46A62000F00EFC6846008874
:100A700008BD000010B5782000F00CF8792000F0D7
:100A800009F87A2000F006F801A000F0E5FF10BD9B
:100A90000A0D000070B50024782804D0792808D009
:100AA0007A280DD111E03220FFF7D7FF044630A09D
:100AB00004E03420FFF7D1FF04462FA000F0CCFF64
:100AC000E00408D52E48044307E03620FFF7C5FFB1
:100AD00004462CA0F2E72405240D2046FFF7E0FC95
:100AE000FFF726FD294A2A4BFFF7FAFBFFF734FDF3
:100AF000284E0546002C19DBFFF7DDFC0446FFF706
:100B0000CFFC2946FFF79FFB3146FFF7A0FBFFF71D
:100B1000D2FC0246632802DD21461FA023E0092AF9
:100B2000214601DD1FA01EE021A01CE00120C0071E
:100B300045402846FFF7BFFC0446FFF7B1FC2946B5
:100B4000FFF781FB3146FFF782FBFFF7B4FC02465B
:100B5000632802DD214619A005E0092A214601DDAE
:100B600019A000E01BA000F077FF284670BD000030
:100B70005B58203D200000005B59203D2000000014
:100B800000F0FFFF5B5A203D20000000FCA9F1D2DD
:100B90004D62703F00007A442B25642E2533645D3E
:100BA000200000002B25642E302532645D200000DB
:100BB0002B25642E30302531645D20002D25642ED8
:100BC0002533645D200000002D25642E302532641D
:100BD0005D2000002D25642E30302531645D20001D
:100BE0000EB5002000900190029008212D2000F009
:100BF0007FF84B21242000F07BF84B21252000F0CA
:100C000077F80A21262000F073F87021272000F0E1
:100C10006FF80721272000F06BF807212A2000F049
:100C200067F832211D2000F063F80F21212000F029
:100C30005FF85021222000F05BF8C821232000F04B
:100C400057F80721282000F053F82D21292000F023
:100C50004FF800212F2000F04BF87C212E2000F0CF
:100C600047F800200D4901F04BFD012001F03AFD4D
:100C700001F016FD02460A490AA000F0EDFE1E2012
:100C800001F05AFD0B21312000F032F802AA01A92F
:100C9000684600F00FF8FFF7EDFE0EBD00001940AA
:100CA000182900002573203A2030782532580D0A83
:100CB0000000000070B5044615460E463220FFF7CE
:100CC000CCFE20603420FFF7C8FE30603620FFF7EE
:100CD000C4FE286070BD08B5002269460A7001464E
:100CE00001236A46A62000F0CFFA6946087808BDBD
:100CF0000A4610B501460123A62000F0CBFA10BD2C
:100D0000F0B585B07820FFF7C5FE07467920FFF7DC
:100D1000C1FE03907A20FFF7BDFE0025654CED4330
:100D200002902946E068FFF7CFFA06462946384682
:100D3000FFF7CAFA3146FFF731FAE0602946206929
:100D4000FFF7C2FA064629460398FFF7BDFA314677
:100D5000FFF724FA206129466069FFF7B5FA0646D5
:100D600029460298FFF7B0FA3146FFF717FA3946DD
:100D700060610846FFF76BFA039901900846FFF798
:100D800066FA029905460846FFF761FA01460090A7
:100D90002846FFF703FAFFF7CBFB01F0DDFC054621
:100DA0000E463846FFF7C4FB2A463346FFF700FBE2
:100DB00001F062FB0022404BFFF792FA0322520738
:100DC0003E4BFFF7F5FAFFF7C7FB6060009901980B
:100DD000FFF7E4F9FFF7ACFB0546009101F0BCFC1E
:100DE00006460F460398FFF7A3FB3B463246FFF744
:100DF000DFFA01F041FB00222F4BFFF771FA0322CB
:100E000052072E4BFFF7D4FAFFF7A6FB20602846C7
:100E1000009901F0A1FC05460E460298FFF788FBF9
:100E200033462A46FFF7C4FA01F026FB0022224B84
:100E3000FFF756FA03225207204BFFF7B9FAFFF7E4
:100E40008BFBA0601E480068400716D56069FFF75D
:100E50006FFB074600912069FFF76AFB05460E46C7
:100E6000E068FFF765FB009A03920B466946E0C114
:100E7000024614A000F0F0FD17E06068FFF758FB91
:100E800002460B4616A000F0E7FD2068FFF750FB76
:100E900002460B4616A000F0DFFDA068FFF748FBF6
:100EA00002460B4616A000F0D7FD18A000F0D4FDB6
:100EB00005B0F0BD1C00002000806640FB21094009
:100EC000140000204163633A25382E336C662C25CC
:100ED000382E336C662C25382E336C662C000000BF
:100EE00050697463683A25382E336C662C00000014
:100EF000526F6C6C3A25382E336C662C0000000063
:100F00005961773A25382E336C662C000D0A0000A3
:100F10000EB509490EC900910192810F8A00029312
:100F200069468A58054951184A68C306DB0E0120F4
:100F3000984002434A600EBD98280000000200401D
:100F400002490A6802430A6070470000000200403C
:100F500010B500F0F9FA0148006810BD000000204B
:100F600002480068C00700D00148704700020040F6
:100F70000048E80104480068800702D50120C0034A
:100F800070470020704700000002004010B500F0DC
:100F9000DBFA0448406B41070348490F0068C8402A
:100FA00010BD0000000200400000002010B500F05D
:100FB000CBFA0448406B4006410F03480068C84024
:100FC00010BD0000000200400000002008B511A084
:100FD000006811490090096800200522120411429E
:100FE00016D1080301D50D4800E00D488A030FD43F
:100FF0000A04920F6B469B5CCA058904D20DC90E88
:10100000891C8008921C59435043FFF79FF88000C9
:1010100008BD00000102020440020040001BB700AE
:101020000048E801F3B5124881B005690F46102069
:101030000F4C0540403C20680426304320601020BF
:1010400000F050F82069072108432061206A000958
:1010500000013843206220698843019908432061D8
:1010600000F072FA002D02D12068B0432060FEBD6E
:1010700040020040F0B5194B88B0F0CB009401ACB1
:10108000E0C478CB04AF78C7840A23061B0E0ED0C9
:1010900003039B0F9B0004ADEB58114D5B19E5B2A8
:1010A0008405E40EA5401C68AC4314431C60420E4A
:1010B000520710D08200920F92006B469A58084B4C
:1010C000103BD21803015B0FC001C00E83401068B3
:1010D00098430843106008B0F0BD00007828000075
:1010E0002002004010B504460749084B05E00A46B7
:1010F000491E002A01DC002010BD1A6920469043D9
:10110000F5D1012010BD000080F520004002004014
:1011100010B5064C01229103204600F009F8012287
:10112000D103204600F004F810BD0000404000400C
:10113000F0B5002301273C469C400C4208D00568CE
:101140005C000326A640B5431646A640354305601D
:101150005B1C102BEFD3F0BD044603A000F07CFC19
:10116000204601F01DFBFEE7496E204861726420B5
:101170004661756C742048616E646C65720A00008B
:1011800010B50849C8684A69D243D20706D0064953
:101190008A68002A01D08968884710BD084600F097
:1011A0002FF810BD000008403400002010B50B4897
:1011B00000F0ACF90B4C0A49204600F041F82046FB
:1011C00000F028F8014608A000F046FC204600F098
:1011D0001CF8012009498004086010BD08000004C3
:1011E000801A06000000084049324320636C6F6398
:1011F0006B20256420487A0A0000000000E100E02E
:101200004169012211434161704701688022114305
:101210000160704710B504690649884202D1FFF7A2
:10122000C5FE01E0FFF7B2FEA100091DFEF78EFF2B
:1012300010BD0000001008408068C0B27047000078
:1012400070B505460F480E46854202D1FFF7AEFE47
:1012500001E0FFF79BFE04460A22B1005043FEF76F
:1012600075FF0A21401DFEF771FF401E28612968A5
:1012700040221143296081002046091DFEF766FFC8
:1012800070BD00000010084000B540089BB200F09F
:10129000A7F800BD18B56C46227040089BB26A469C
:1012A00000F0BAF818BD0000F8B53C242A4E2B4DCA
:1012B000082819D018281AD020281DD0012728283E
:1012C0001ED0102829D040282BD050282DD05828A7
:1012D00011D12846FFF7B0FF0146B078F268121826
:1012E000401CB070117012E07078400000E030795E
:1012F000A8602DE02860F8BD2868A0433830F9E7E1
:10130000F078002803D02868A0432830F2E7286846
:10131000A043183028603770F8BD70784000401C3A
:10132000E6E7F07801280FD812E02846FFF784FF9F
:101330000146B078F2681218401CB0701170B17894
:10134000F078401E814203DA2868A0430C30D1E7D0
:101350002868A0430830CDE7340000200000084092
:1013600010B51D493C221D4B082811D0182812D059
:10137000202817D0282819D0382829D0002810D1A3
:10138000086890431C300860086890430C3007E000
:101390005878400000E01879886008689043083069
:1013A000086010BD086890433830F9E79878DC7819
:1013B000A04206D29878DC682418401C98702078E7
:1013C000EAE708689043183008600120187010BDE3
:1013D000086890432C30E3E7000008403400002008
:1013E00010B50A4C6070E37021710020E26020703B
:1013F000A0700748A060074908683C22904320304D
:10140000086020780028FCD010BD000034000020C7
:10141000A91200000000084010B50A4C6070E3708B
:1014200021710021E260A17021700748A060074887
:1014300002683C239A432032026020780028FCD0C6
:10144000217010BD3400002061130000000008402E
:10145000BFF34F8F04490348C860BFF34F8F00BFED
:10146000FDE700000400FA0500ED00E070B559202A
:10147000234C162188222060216022602368002BE3
:10148000F9D00520FFF75CFD1120FFF72BFE0A20A5
:10149000FFF756FD0A20FFF725FE00210720FFF782
:1014A000C1FD184D2846FFF733FD03210022090630
:1014B0002846FFF7DFFD144D2846FFF729FD0721D9
:1014C000002209032846FFF7D5FD0D48F838FFF73D
:1014D0001FFD01208007C16BFF22120491433322BC
:1014E00052048918C1630648C0380168090A090214
:1014F0009931016000F028F80020206070BD0000E4
:1015000000010040103D805F0300C05E0121020E1B
:10151000890751188B680122824013438B608868C9
:10152000904388607047000006498A691202FCD423
:101530000A2804D10D220A608A691202FCD40860CC
:101540007047000000000740F8B51D4D28691C4990
:1015500044071CA000680090640F00204031096817
:1015600005221204114216D1080301D5164800E0E5
:1015700016488A030FD40A04920F6B469B5CCA0577
:101580008904D20DC90E891C8008921C594350430E
:10159000FEF7DCFD80000E4E022CB06002D00D493B
:1015A000A0000858296A0907090F491CFEF7CEFD5B
:1015B000094930604A108018FEF7C8FD7060F8BD18
:1015C0000002004001020204001BB7000048E801CD
:1015D000000000205828000040420F0010B559219B
:1015E0000A48162388220160036002600468002C08
:1015F000F9D007490B680722120593430B600B686B
:1016000013430B600021016010BD00000001004089
:101610000002004010B50A4C7D220121D200C9060B
:10162000204600F049F8206821060843206008158C
:1016300004490860206889050843206010BD000047
:101640002000054000E100E010B588B004462022EB
:1016500015496846FEF790FD144B144A1448203390
:10166000944202D14069000A0BE09C4202D14069D9
:10167000000B06E00F4940698C4201D1000C00E0EC
:10168000000D4107490F022904D088006946085817
:1016900008B010BD944201D09C4202D1FFF776FC05
:1016A000F6E7FFF783FCF3E7B028000000000540F1
:1016B0000002004000100540F7B517460646FFF748
:1016C000C3FF054600244008B84201D8022008E0C4
:1016D00039462846FEF73AFD040E02D0611CFEF79B
:1016E00035FD0199214331607060641C60430146FF
:1016F0002846FEF72BFDFEBD70B518488168C90766
:10170000C90F28D00125856001F09EF8144CA0680F
:101710007D21C900FEF71AFD002903D11148816B14
:1017200069408163A0680521FEF710FD002903D1FF
:101730006068022108436060A0680B49FEF706FD5F
:10174000002908D1207804216840207001286068B1
:1017500002D08843606070BD0843FBE7200005406D
:1017600010000020404800401027000010B50B4C2E
:10177000E06911210902084202D104E000F044F9B5
:10178000A1694904FAD5A16920467122114203D00A
:101790000921890200F07EF810BD0000000007401A
:1017A00010B51848FFF7B2FE174CE1214902204658
:1017B00000F090F81121204600F088F8012013492C
:1017C00000030860FFF7C4FB014611A000F044F9D4
:1017D000FFF7C6FB014615A000F03EF9FFF7CAFB74
:1017E000014618A000F038F9FFF7D0FB01461BA016
:1017F00000F032F9FFF7DAFB01461FA000F02CF9E8
:1018000010BD0000100000040000074000E100E0EF
:101810000D0A434C4B5F47657443505546726571E2
:10182000203A202538640D0A00000000434C4B5F2D
:1018300047657448585446726571203A20253864CB
:101840000D0A0000434C4B5F4765744C5854467278
:101850006571203A202538640D0A0000434C4B5F27
:1018600047657450434C4B3046726571203A2025D1
:1018700038640D0A00000000434C4B5F476574500C
:10188000434C4B3146726571203A202538640D0A6D
:1018900000000000CA0102D501221204C2614A05FB
:1018A00003D570228261082282610A0503D542694C
:1018B00001231A4342618A0401D5034A8261490423
:1018C00001D51F21416470470100000142680A43AD
:1018D00042607047F0B587B00F46044600252E469B
:1018E00018223E496846FEF747FC3D493D483E4ABE
:1018F0008C4204D14369006A5B015D0F1FE03B4BE2
:101900009C4204D14369006A5B005D0F22E094426F
:1019100004D1C369006B5B015D0F11E0344B9C4245
:1019200006D1C369006B5B005D0F0006060F13E074
:10193000304B9C4207D1C369006B5B035D0F000A0B
:101940000607360F08E02C4B9C4205D1C369006B9B
:101950005B025D0F0004060F002020630320E0609F
:10196000A068264B1840A060012D02D0042D04D0A1
:1019700013E0FFF72BFB01900FE08C4207D094425D
:1019800005D01C48844202D01D48844202D1FFF792
:10199000FDFA01E0FFF70AFB0490002F1BD0A9001D
:1019A00068464058711CFEF7D1FB0546790840187F
:1019B0003946FEF7CBFB1349801E884207D9F90050
:1019C00068183946FEF7C2FB0009801E02E00321B9
:1019D00009070843606207B0F0BD0000D02800008E
:1019E00000000740000200400020074000100740B0
:1019F0000030074000400740005007400FFFF0FF55
:101A000000600740FFFF000010B50D480068C0B23D
:101A1000782813D0582811D07F2803D909A000F0C6
:101A20001BF810BD5A2809D004DC3128F9D05828F9
:101A3000F7D103E0782801D07A28F2D1FFF708FD2A
:101A400000000740696E76616C696420636F6D6D9C
:101A5000616E640D0A0000000FB410B503A9044BB9
:101A6000044A029800F06CF910BC08BC04B0184796
:101A7000952600000C0000202021020C01D010212E
:101A80001046020A01D010460839020901D010465A
:101A9000091F820801D01046891E420801D0881E05
:101AA0007047081A704700004900CA02024310003C
:101AB00000D004204A0D01D001221043044A490DF0
:101AC000914201D102210843012800D1052070472D
:101AD000FF070000F8B504464F1EC800083821185B
:101AE00015461E46086849683A4606239A4310D0B0
:101AF0002A463346FEF7F4FB3A46D200083AA318CA
:101B00001A687F1E5B68FEF725FE06223B4693435C
:101B1000EED1022F23D0042F11D0062F2FD12A4629
:101B20003346FEF7DDFBE36AA26AFEF713FE2A46A0
:101B30003346FEF7D5FB636A226AFEF70BFE2A46A0
:101B40003346FEF7CDFBE369A269FEF703FE2A46A2
:101B50003346FEF7C5FB63692269FEF7FBFD2A46A3
:101B60003346FEF7BDFBE368A268FEF7F3FD2A46A5
:101B70003346FEF7B5FB63682268FEF7EBFDF8BD60
:101B800010B50122FEF798FE10BD0000034A10B503
:101B900000201107FEF790FE10BD000001FDFFFFC1
:101BA00002E008C8121F08C1002AFAD17047704726
:101BB000002001E001C1121F002AFBD17047000084
:101BC000014908607047000044000020F0B51FB4D0
:101BD00086B00998089A030D0021024314D0514899
:101BE000514A1818504305141198012810981AD01A
:101BF000281A401C00264D4F4D4900960191049033
:101C0000002812DA444211E01198012449A3012866
:101C100001D11098C1430698119A84600360C26094
:101C200041600BB0F0BD4042E4E7044621050020CE
:101C30003F4A001C51410391029012E0E00707D097
:101C400032463B4601990098FEF74AFB019100900D
:101C500032463B4610461946FEF742FB06460F4603
:101C60006410002CEAD10498039B0028029A099979
:101C7000089806DAFEF734FB019B009AFEF730FB6A
:101C800005E0FEF795FB019B009AFEF791FB0446E9
:101C90000E460022284BFEF797FE03D80020C043D3
:101CA000014607E00022254B20463146FEF752FD53
:101CB000FEF76AFE102409E0002C0ADB0A2200234A
:101CC000FEF766FC079B30321A55641E02460A4333
:101CD000F2D11122641C079B121B1C19119B012BB2
:101CE00003D0012308430ED10AE0084304D0112099
:101CF00010900020119077E71098151A6D1E0BE0D8
:101D00001098824202DD00236D1C03E0824201DA5A
:101D100000236D1E002BEED0069811998260C160E1
:101D200030C07EE701FCFFFF104D000000001440B2
:101D30000000F03F300000000000F0430000E03FF2
:101D4000FFB597B00646002518E2252877D1002474
:101D50002746FD49049400E00443761C32780120B4
:101D6000203A90400842F7D130782A280ED002223B
:101D7000307801463039092916D804990A23594385
:101D8000303940181443761C0490F1E7189802C8C3
:101D900004911890002904DA0120400304434842CA
:101DA000049002200443761C30782E2814D104209D
:101DB00004437078761C2A2809D11898761C80C8AC
:101DC000189009E00A214F43303FC719761C30783C
:101DD000014630390929F5D930786C2810D006DC55
:101DE0004C281AD068280ED06A2817D104E074282D
:101DF00013D07A2812D110E00120400504430CE0F2
:101E00000121090501E0032109050C437178814294
:101E100003D1012000052418761C761C307811901F
:101E200066280BD013DC58287DD009DC00287BD035
:101E30004528F6D04628F4D047281AD1A5E118E065
:101E4000632835D0642870D0652812D19DE17028B0
:101E50006CD008DC6728F1D069287BD06E280DD0C3
:101E60006F2806D1BAE073282ED0752871D0782853
:101E700059D01A9A199990476D1C7EE16002400F63
:101E8000022809D003280DD00428189801680DD025
:101E90000D60001D189070E11898EA1701680D6038
:101EA0004A60F6E7189801680D80F2E70D70F0E7D8
:101EB00018986A4601781172001D1890002050721F
:101EC00002A80090012005E0189802C81890002090
:101ED0000091C04361070DD5002101E00199491C23
:101EE0000191B94212DA8142F8DB009A515C002973
:101EF000F4D10BE0002101E00199491C01918142DC
:101F0000FADB019A0099895C0029F5D101990498BE
:101F10001A9B471A21463846199A00F097FA0199F8
:101F2000401945180BE04FE02CE113E04EE000981B
:101F300000990078491C00911A9A199990470198C4
:101F4000401E0190401CF2D1214638461A9B199A36
:101F500010E137E00A200021009001916002410F5A
:101F6000022907D0189A01CA1892C2179446032969
:101F700008D00AE01898C01DC108C90005C9189109
:101F8000944607E000B2C2179446042902D140B239
:101F9000C1178C4600226146944506DA0A460021A4
:101FA000404291418C462D2102E0210504D52B2190
:101FB0006A461173012103E0E10701D02021F7E710
:101FC000029155E00A200AE0102008E0102000905D
:101FD0000021042004430191082703E00820002188
:101FE000019100906002410F022907D0189A01CA9E
:101FF000189200229446032908D008E01898C01DC2
:10200000C108C90005C91891944603E080B20429AB
:1020100000D1C0B200210291210729D51199702960
:1020200006D0009A1021019B4A401A4305D00EE0C9
:1020300040216A461173012108E06146014306D040
:1020400030216A4611731199517302210291009A4D
:102050000821019B4A401A430AD16146014301D13C
:10206000610705D530216A46117301217F1E029157
:102070001199582904D035A10E910DA90D910DE0AB
:1020800037A1F9E76146019B009AFEF781FA0E9BA2
:102090008C469B5C0D9A521E0D9213706146014353
:1020A000F0D10D9805A9081A20300190600703D5DA
:1020B00001200004844300E001270198874201DDEC
:1020C000381A00E000200199009041180298091880
:1020D0000498401A0490E00306D421461A9B199AEA
:1020E000049800F0B3F94519002706E003A81A9AEE
:1020F000C05D199990476D1C7F1C02988742F5DBE3
:10210000E0030CD521461A9B199A049800F09EF919
:10211000451904E01A9A3020199990476D1C0099CE
:10212000481E00900029F5DC08E00D980D99007814
:10213000491C0D911A9A199990476D1C0199481ED6
:1021400001900029F1DC63E10928010030313233CC
:1021500034353637383961626364656600000000E3
:1021600030313233343536373839414243444546CD
:102170000000000000F05AF94519761C307800285C
:1021800000D0E2E528461BB0F0BD600700D406276A
:102190001898C01DC108C90048680A680831C30FF3
:1021A000DB071891190001D09CA108E0210501D599
:1021B0009BA104E0E10701D09AA100E09AA14300AD
:1021C00011985B08109165280CD006DC452809D0D1
:1021D00046281DD0472841D141E0662818D06728FD
:1021E0003CD13CE00021112F01DB112000E0781CE4
:1021F0000191009008A911A8FFF7E8FC1399059137
:102200000021119A15927F1C12980197009150E0BD
:102210000120C00703900120019008A9009711A890
:10222000FFF7D4FC139A149905920022119B009297
:1022300012981593059A0192002901D0104602E0E8
:10224000791C40180190381A01D5019804E04042E9
:10225000401E0090781C0190C01B029043E0012FAB
:1022600000DA01270021112F01DD112000E038469E
:102270000191009008A911A8FFF7A8FC13990591F6
:10228000119A0021129815920091019721070CD400
:102290000599B94201DB019900E00191012904DDB2
:1022A000159A491E515C302906D0B84201DA011D49
:1022B00005DA0121029115E00199491EEDE7002898
:1022C00005DC0099411800910199091A03E0019A6F
:1022D000411C914200DD01910099401A401C02907E
:1022E0000120C0070390200706D40299019881427B
:1022F00002DB0020C043029000206946C87707AF88
:10230000012103980337C907884224D00220119085
:102310002B201290039800280CDA404203902D20C5
:10232000129007E00A210398FDF710FF30317F1E5D
:10233000039039701199481E11900029F2DC03981E
:102340000028EFD1791E12980870307820210840BB
:102350004530BF1E387006A8C01BC01D03901098E2
:102360000078002800D00120019941180298C01778
:102370000918039809180498401A401E0490E003B5
:1023800006D421461A9B199A049800F05FF8451963
:1023900010980078002803D01A9A199990476D1C5C
:1023A000E00324D521461A9B199A049800F04EF8B0
:1023B00045191CE00098002807DB00990598884221
:1023C00003DD1598405C199901E0199930201A9A9B
:1023D000904700986D1C401C00900298401E02908F
:1023E000002804D11A9A2E20199990476D1C019942
:1023F000481E01900029DDDC05E038781A9A7F1C20
:10240000199990476D1C0399481E03900029F4DC2C
:1024100021461A9B199A0498ACE600002D00000092
:102420002B0000002000000000000000F8B504466A
:1024300000251E461746880404D405E039462020AE
:10244000B0476D1C641EF9D52846F8BDFFB504469B
:10245000002581B01E46C80301D5302700E02027A3
:10246000880404D505E038460399B0476D1C641E06
:10247000F9D5284605B0F0BDF0B589B004460D4643
:102480004800069172494008884215DB714988422C
:1024900003DC884207D1002C05D020462946FFF7EF
:1024A0006FFB09B0F0BD6C48002D02DD6B4909B02F
:1024B000F0BD6B4909B0F0BD6A49884211DA6A493A
:1024C00088420BDA20462946FFF7EEFA042801D1AC
:1024D000FFF75CFB2046294609B0F0BD0026F64315
:1024E0005DE06D0061496D08884232DA60498842DA
:1024F00019DA0026012332469B0720462946FEF7BB
:1025000029F907460191012220462946FEF7D4F910
:102510000022584BFEF7C2F93A46019BFDF748FFEF
:1025200004460D463BE001260022524B2046294638
:10253000FEF710F90746009100224E4B204629462F
:10254000FEF7ACF93A46009BFDF732FF04460D4614
:1025500025E04949884219DA02260022474B2046E5
:102560002946FDF7BDFE0022424BFEF7F3F8074671
:1025700002910022414B20462946FEF78FF93A4648
:10258000029BFDF715FF04460D4608E00326224690
:102590002B4600203A49FDF70BFF04460D46224624
:1025A0002B4610461946FDF79BFE07460B46024692
:1025B0000191FDF795FE0246029032480B460391C9
:1025C00006217844FFF786FA3A46019BFDF788FE1C
:1025D00000902D48019105217844039B029AFFF752
:1025E00079FA039B029AFDF77BFE02460B4601999E
:1025F0000098002E0BDAFEF7ADF822462B46FDF7C9
:102600006FFE22462B46FEF74FF909B0F0BDFEF7EC
:10261000A1F822462B46FDF763FE1C4AF6007A44D9
:1026200093191A685B68FEF739F922462B46FEF7C4
:1026300035F9174A7A4493191A685B68FEF734F93A
:10264000069A002AE1DA0122D207514009B0F0BD12
:10265000000010440000F07F182D4454FB21F93F86
:10266000FB21F9BF0000DC3F0000203E0000F33FEB
:102670000000E63F0000F03F008003400000F83F0C
:102680000000F0BFCA0300008C0300002603000016
:10269000F002000010B50446FEF746FF204610BDCC
:1026A00010B53820FEF717FB0006800F10BD0000A4
:1026B000FEF7DCFEFFF774F8FEF72AFDFEF7AAFF2F
:1026C000FEF774FDFEF78CFA054C02256068800762
:1026D000FCD56068A8436060FEF712FBF6E70000D7
:1026E0001000002010B504463820FEF7F4FA8006EA
:1026F000800EA1010143C9B23820FEF7F9FA10BDDE
:1027000010B500220B4BFDF753FEFDF7EDFE002444
:1027100000E0641C4010FCD1092C0ADC2C20FEF7E0
:10272000DAFA00090001A41D2043C1B22C20FEF7F3
:10273000DFFA10BD0000194010B504463820FEF73E
:10274000CAFAC1B24909E0064901C00E0143382066
:10275000FEF7CEFA10BD0000F8B506460C46FEF7AF
:10276000C1F8051E0F4600D00120014349000B4867
:102770004908411AC90F0DD0002E01D0012100E0F7
:1027800000210C4361004908401AC00F02D101200A
:10279000FFF716FA28463946F8BD00000000F07F22
:1027A00010B50446016810A0FFF756F911A0616842
:1027B000FFF752F912A0A168FFF74EF913A0E168E4
:1027C000FFF74AF914A02169FFF746F915A06169DE
:1027D000FFF742F916A0A169FFF73EF917A0E169DA
:1027E000FFF73AF910BD0000723020203D2030780C
:1027F00025780A00723120203D20307825780A00A3
:10280000723220203D20307825780A007233202053
:102810003D20307825780A00723132203D20307812
:1028200025780A006C7220203D20307825780A0037
:10283000706320203D20307825780A007073722064
:102840003D20307825780A0002488168491C816063
:1028500070470000100000200048E80100800000E0
:1028600000D8B80500960000006CDC0200000000F3
:1028700000000000006CDC0200000000040000000A
:10288000080000000C000000000000000000000034
:102890000000000010000000000000000400000024
:1028A0000800000000000000040000000800000014
:1028B0000048E80100800000000000000000000067
:1028C000000000000096000000000000006CDC0228
:1028D0000048E8010000000000800000006CDC02FD
:1028E00000000000009600000048E8010000000021
:1028F00000800000006CDC02000000000096000078
:102900000048E8010000000000800000006CDC02CC
:1029100000000000009600004144584C3334355FFD
:10292000496E6974000000004FBB610567ACDD3F74
:10293000182D4454FB21E93F9BF681D20B73EF3FE6
:10294000182D4454FB21F93FE2652F227F2B7A3C5E
:10295000075C143326A6813CBDCBF07A8807703C17
:10296000075C143326A6913CC4EB98999999C9BF8A
:10297000711623FEC671BCBF6D9A74AFF2B0B3BFBF
:102980009AFDDE522DDEADBF2F6C6A2C44B4A2BF7F
:102990000D5555555555D53FFF8300922449C23FEB
:1029A0006E204CC5CD45B73F513DD0A0660DB13F1F
:1029B000EB0D76244B7BA93F11DA22E33AAD903F31
:1029C000E02900000000002048000000A01B0000DB
:1029D000282A00004800002000020000B01B000070
:1029E00000D8B8056000000000D8B805000000005D
:1029F00000000000000000000000000000000000D7
:102A000000000000000000000000000000000000C6
:102A100000000000000000000000000000000000B6
:082A20000000000000000000AE
:04000005000000F106
:00000001FF
